:020000040000FA
:100000000C9435000C945D000C945D000C945D0024
:100010000C945D000C945D000C945D000C945D00EC
:100020000C945D000C945D000C945D000C945D00DC
:100030000C945D000C943C040C945D000C945D00E9
:100040000C94F2030C945D000C94C0030C949A037E
:100050000C945D000C945D000C945D000C945D00AC
:100060000C945D000C945D00610411241FBECFEF61
:10007000D8E0DEBFCDBF11E0A0E0B1E0E6E1FCE0FA
:1000800002C005900D92AA34B107D9F722E0AAE484
:10009000B1E001C01D92A137B207E1F710E0C5E35E
:1000A000D0E004C02197FE010E940306C433D107AB
:1000B000C9F70E94E1040C9409060C940000FC01AD
:1000C000428353836483758386819781A085B1853C
:1000D000840F951FA61FB71F82879387A487B587B4
:1000E0000895FC0188E291E09183808381E0808B18
:1000F0001786168612861386148615862FB7F894EF
:100100008091510190915201A0915301B0915401FD
:100110002FBF86839783A087B187F28BE18B1282F2
:1001200013821482158282879387A487B5870895E6
:10013000CF93DF93A1E5B2E0FD01C191D19120976A
:1001400041F049895A89EC0129893A8942175307B4
:10015000D1F0D2E0EF36FD0781F730E020E04D919D
:100160005D91452B91F4220F331FF901E25CFD4FA5
:10017000948B838B80916F02909170020196909383
:10018000700280936F0281E006C02F5F3F4F2F30D7
:10019000310529F780E0DF91CF910895AF92BF92AA
:1001A000CF92DF92EF92FF920F931F93CF93DF9343
:1001B0006C017B018B01040F151FEB015E01AE1872
:1001C000BF08C017D10759F06991D601ED91FC9194
:1001D0000190F081E02DC6010995892B79F7C501C1
:1001E000DF91CF911F910F91FF90EF90DF90CF9013
:1001F000BF90AF900895FC01538D448D252F30E0C2
:10020000842F90E0821B930B541710F0CF96089523
:1002100001970895FC01918D828D981761F0A28D50
:10022000AE0FBF2FB11D5D968C91928D9F5F9F7316
:10023000928F90E008958FEF9FEF0895FC01918DCC
:10024000828D981731F0828DE80FF11D858D90E039
:1002500008958FEF9FEF0895FC01918D228D892FD6
:1002600090E0805C9F4F821B91098F7399270895BE
:1002700085E591E00E942C0121E0892B09F420E022
:10028000822F089580E090E0892B29F00E943801A8
:1002900081110C9400000895FC01A48DA80FB92FC2
:1002A000B11DA35ABF4F2C91848D90E001968F739E
:1002B0009927848FA689B7892C93A089B1898C91BD
:1002C000837080648C93938D848D981306C002880C
:1002D000F389E02D80818F7D80830895EF92FF92D6
:1002E0000F931F93CF93DF93EC0181E0888F9B8D59
:1002F0008C8D98131AC0E889F989808185FF15C013
:100300009FB7F894EE89FF896083E889F989808135
:100310008370806480839FBF81E090E0DF91CF9104
:100320001F910F91FF90EF900895F62E0B8D10E026
:100330000F5F1F4F0F731127E02E8C8D8E110CC095
:100340000FB607FCFACFE889F989808185FFF5CFE0
:10035000CE010E944C01F1CFEB8DEC0FFD2FF11D72
:10036000E35AFF4FF0829FB7F8940B8FEA89FB891D
:1003700080818062CFCFCF93DF93EC01888D88237B
:10038000B9F0AA89BB89E889F9898C9185FD03C0F8
:10039000808186FD0DC00FB607FCF7CF8C9185FFDD
:1003A000F2CF808185FFEDCFCE010E944C01E9CFD5
:1003B000DF91CF9108958F929F92AF92BF92CF928B
:1003C000DF92EF92FF920F931F93CF93DF93EC0195
:1003D000EE85FF85309709F009958FB7F8948090E6
:1003E000510190905201A0905301B09054018FBFE1
:1003F0008E010D5E1F4F6E0121E3C20ED11CF12C48
:10040000E12C89A99AA98E159F0514F1D8018D9127
:100410009D918D010097C9F0BFEFEB1AFB0ADC013B
:10042000ED91FC910280F381E02DB501A4010995C5
:10043000882359F0F801329780819181DC01ED9198
:10044000FC910480F581E02D0995C016D106C9F60E
:100450008FB7F8944091510150915201609153012E
:10046000709154018FBF4E835F83688779878A813B
:100470009B81AC81BD81840F951FA61FB71F8A8702
:100480009B87AC87BD87DF91CF911F910F91FF9024
:10049000EF90DF90CF90BF90AF909F908F90089596
:1004A000CF93DF93EC01EE85FF85309709F0099536
:1004B0008FB7F894409151015091520160915301CE
:1004C000709154018FBF4E835F83688779878A81DB
:1004D0009B81AC81BD81840F951FA61FB71F8A87A2
:1004E0009B87AC87BD87DF91CF9108950F931F93B2
:1004F000FC010285138524853585401B510B620B59
:10050000730B80E077FF80891F910F91089585E537
:1005100091E00E942C011816190624F585E591E05A
:100520000E940A0180E395E7A0E0B0E08093070213
:1005300090930802A0930902B0930A0280910B02E3
:1005400090910C02A0910D02B0910E02805D9A482C
:10055000AF4FBF4F80930F0290931002A0931102F0
:10056000B093120208954CE050E068E171E085E537
:1005700091E00C94CE004CE050E06CE071E085E539
:1005800091E00C94CE004CE050E060E071E085E535
:1005900091E00E94CE0080914A0190914B0101961A
:1005A00090934B0180934A018E342FE09207C9F457
:1005B00010920702109208021092090210920A0289
:1005C00080910B0290910C02A0910D02B0910E024D
:1005D00080930F0290931002A0931102B093120225
:1005E00008958C312EE0920709F050C081E390E02D
:1005F000A0E0B0E080932D0290932E02A0932F02F2
:10060000B093300240913102509132026091330236
:10061000709134024F5C5F4F6F4F7F4F40933502B4
:1006200050933602609337027093380280931A0217
:1006300090931B02A0931C02B0931D0240911E02D6
:1006400050911F0260912002709121024F5C5F4F18
:100650006F4F7F4F409322025093230260932402F6
:10066000709325028093070290930802A0930902D9
:10067000B0930A0280910B0290910C02A0910D029E
:10068000B0910E02C196A11DB11DA2CF8436924039
:1006900009F0A6CF8AE090E0A0E0B0E080932D02C0
:1006A00090932E02A0932F02B0933002409131021A
:1006B000509132026091330270913402465F5F4F75
:1006C0006F4F7F4F4093350250933602609337024D
:1006D0007093380280931A0290931B02A0931C021D
:1006E000B0931D0240911E0250911F0260912002A2
:1006F00070912102465F5F4F6F4F7F4F4093220200
:100700005093230260932402709325028093070282
:1007100090930802A0930902B0930A0280910B0201
:1007200090910C02A0910D02B0910E020A96A11DAB
:10073000B11D4ECF1F920F920FB60F9211242F931F
:100740003F934F935F936F937F938F939F93AF9359
:10075000BF93EF93FF9385E591E00E944C01FF91D9
:10076000EF91BF91AF919F918F917F916F915F9129
:100770004F913F912F910F900FBE0F901F901895A2
:100780001F920F920FB60F9211242F938F939F9366
:10079000EF93FF93E0916501F09166018081E09114
:1007A0006B01F0916C0182FD1BC0908180916E0104
:1007B0008F5F8F7320916F01821741F0E0916E017E
:1007C000F0E0EB5AFE4F958F80936E01FF91EF9111
:1007D0009F918F912F910F900FBE0F901F901895A2
:1007E0008081F4CF1F920F920FB60F9211242F9396
:1007F0003F938F939F93AF93BF93809151019091BB
:100800005201A0915301B09154013091500123E065
:10081000230F2D3758F50196A11DB11D20935001CE
:100820008093510190935201A0935301B0935401CE
:1008300080914C0190914D01A0914E01B0914F01DA
:100840000196A11DB11D80934C0190934D01A09381
:100850004E01B0934F01BF91AF919F918F913F9106
:100860002F910F900FBE0F901F90189526E8230F21
:100870000296A11DB11DD2CF1F920F920FB60F92FB
:1008800011242F933F934F935F936F937F938F9395
:100890009F93AF93BF93EF93FF93F0E0E0E0099550
:1008A000FF91EF91BF91AF919F918F917F916F9148
:1008B0005F914F913F912F910F900FBE0F901F901E
:1008C0001895109258011092570188EE93E0A0E01D
:1008D000B0E08093590190935A01A0935B01B093CB
:1008E0005C0182E391E0909356018093550185EC81
:1008F00090E0909362018093610184EC90E090938A
:1009000064018093630180EC90E090936601809392
:10091000650181EC90E0909368018093670182EC1F
:1009200090E090936A018093690186EC90E0909347
:100930006C0180936B0110926E0110926F01109206
:100940007001109271018EE392E00E94710084E4C4
:1009500091E090933F0280933E02109270021092B9
:100960006F02E1E5F2E01192119282E0EF36F807B2
:10097000D1F710924002109241021092420210925E
:1009800043028091440290914502A0914602B091A9
:1009900047028093480290934902A0934A02B09381
:1009A0004B028BE292E00E94710088E192E00E948B
:1009B000710085E092E00E94710082EF91E00C945A
:1009C0007100789484B5826084BD84B5816084BDF3
:1009D00085B5826085BD85B5816085BD80916E00DD
:1009E000816080936E00109281008091810082600E
:1009F000809381008091810081608093810080914B
:100A000080008160809380008091B1008460809339
:100A1000B1008091B00081608093B00080917A0035
:100A2000846080937A0080917A00826080937A005B
:100A300080917A00816080937A0080917A0080684A
:100A400080937A001092C100E0916501F0916601F7
:100A500082E08083E0916101F09162011082E09177
:100A60006301F091640183E0808310926D01E09155
:100A70006901F0916A0186E08083E0916701F0915D
:100A80006801808180618083E0916701F091680155
:100A9000808188608083E0916701F09168018081A6
:100AA00080688083E0916701F091680180818F7D8B
:100AB000808381E390E0A0E0B0E080932D029093EA
:100AC0002E02A0932F02B093300240913102509138
:100AD000320260913302709134024F5C5F4F6F4F6E
:100AE0007F4F4093350250933602609337027093E4
:100AF000380223EC32E030933A022093390280939B
:100B00001A0290931B02A0931C02B0931D02409105
:100B10001E0250911F0260912002709121024F5CD1
:100B20005F4F6F4F7F4F4093220250932302609399
:100B30002402709325022BEB32E03093270220939E
:100B400026028093070290930802A0930902B093B3
:100B50000A0280910B0290910C02A0910D02B091BB
:100B60000E02C196A11DB11D80930F029093100239
:100B7000A0931102B093120283EB92E090931402BF
:100B80008093130288EE93E0A0E0B0E08093F4013C
:100B90009093F501A093F601B093F7018091F801CD
:100BA0009091F901A091FA01B091FB0188519C4FFD
:100BB000AF4FBF4F8093FC019093FD01A093FE01C6
:100BC000B093FF0187E892E09093010280930002C6
:100BD0008BE292E00E94980088E192E00E949800E7
:100BE00085E092E00E949800C0E0D0E08EE392E0C1
:100BF0000E94DB012097D1F30E9438018823B1F3D2
:100C00000E940000F3CFEE0FFF1F0590F491E02D3E
:100C10000994F894FFCF12AAA03734323039393111
:100C20000D0A12AAA1373432303034300D0A12AA1C
:100C3000A2373432323939310D0A000000005F002A
:100C400076025002000000006E01CE00FB00BB01E6
:100C50002C010A011E01000000005F007602DB018A
:107E0000112484B714BE81FFF0D085E080938100F7
:107E100082E08093C00088E18093C10086E0809377
:107E2000C20080E18093C4008EE0C9D0259A86E02C
:107E300020E33CEF91E0309385002093840096BBD3
:107E4000B09BFECF1D9AA8958150A9F7CC24DD24C4
:107E500088248394B5E0AB2EA1E19A2EF3E0BF2EE7
:107E6000A2D0813461F49FD0082FAFD0023811F036
:107E7000013811F484E001C083E08DD089C08234E0
:107E800011F484E103C0853419F485E0A6D080C0E4
:107E9000853579F488D0E82EFF2485D0082F10E0AE
:107EA000102F00270E291F29000F111F8ED06801E7
:107EB0006FC0863521F484E090D080E0DECF843638
:107EC00009F040C070D06FD0082F6DD080E0C81688
:107ED00080E7D80618F4F601B7BEE895C0E0D1E017
:107EE00062D089930C17E1F7F0E0CF16F0E7DF06D8
:107EF00018F0F601B7BEE89568D007B600FCFDCFD4
:107F0000A601A0E0B1E02C9130E011968C91119780
:107F100090E0982F8827822B932B1296FA010C0160
:107F200087BEE89511244E5F5F4FF1E0A038BF0790
:107F300051F7F601A7BEE89507B600FCFDCF97BE46
:107F4000E89526C08437B1F42ED02DD0F82E2BD052
:107F50003CD0F601EF2C8F010F5F1F4F84911BD097
:107F6000EA94F801C1F70894C11CD11CFA94CF0C13
:107F7000D11C0EC0853739F428D08EE10CD085E9AC
:107F80000AD08FE07ACF813511F488E018D01DD067
:107F900080E101D065CF982F8091C00085FFFCCF94
:107FA0009093C60008958091C00087FFFCCF809118
:107FB000C00084FD01C0A8958091C6000895E0E648
:107FC000F0E098E1908380830895EDDF803219F02E
:107FD00088E0F5DFFFCF84E1DECF1F93182FE3DFCA
:107FE0001150E9F7F2DF1F91089580E0E8DFEE27F6
:047FF000FF270994CA
:027FFE00040479
:00000001FF
